{
  "_format": "hh-sol-artifact-1",
  "contractName": "ParkingFeeSystem",
  "sourceName": "contracts/Contract.sol",
  "abi": [
    {
      "inputs": [
        {
          "internalType": "uint256",
          "name": "_feeRatePerHour",
          "type": "uint256"
        }
      ],
      "stateMutability": "nonpayable",
      "type": "constructor"
    },
    {
      "anonymous": false,
      "inputs": [
        {
          "indexed": true,
          "internalType": "address",
          "name": "user",
          "type": "address"
        },
        {
          "indexed": false,
          "internalType": "uint256",
          "name": "amount",
          "type": "uint256"
        }
      ],
      "name": "BalanceDeposited",
      "type": "event"
    },
    {
      "anonymous": false,
      "inputs": [
        {
          "indexed": true,
          "internalType": "address",
          "name": "user",
          "type": "address"
        },
        {
          "indexed": false,
          "internalType": "uint256",
          "name": "amount",
          "type": "uint256"
        }
      ],
      "name": "BalanceWithdrawn",
      "type": "event"
    },
    {
      "anonymous": false,
      "inputs": [
        {
          "indexed": true,
          "internalType": "address",
          "name": "user",
          "type": "address"
        },
        {
          "indexed": false,
          "internalType": "string",
          "name": "vehicleNumber",
          "type": "string"
        },
        {
          "indexed": false,
          "internalType": "uint256",
          "name": "amount",
          "type": "uint256"
        }
      ],
      "name": "FeePaid",
      "type": "event"
    },
    {
      "anonymous": false,
      "inputs": [
        {
          "indexed": false,
          "internalType": "uint256",
          "name": "amount",
          "type": "uint256"
        }
      ],
      "name": "OwnerWithdrawn",
      "type": "event"
    },
    {
      "anonymous": false,
      "inputs": [
        {
          "indexed": true,
          "internalType": "address",
          "name": "user",
          "type": "address"
        },
        {
          "indexed": false,
          "internalType": "string",
          "name": "vehicleNumber",
          "type": "string"
        },
        {
          "indexed": false,
          "internalType": "uint256",
          "name": "parkingHours",
          "type": "uint256"
        },
        {
          "indexed": false,
          "internalType": "uint256",
          "name": "fee",
          "type": "uint256"
        }
      ],
      "name": "ParkingHoursSet",
      "type": "event"
    },
    {
      "anonymous": false,
      "inputs": [
        {
          "indexed": true,
          "internalType": "address",
          "name": "user",
          "type": "address"
        },
        {
          "indexed": false,
          "internalType": "string",
          "name": "vehicleNumber",
          "type": "string"
        }
      ],
      "name": "VehicleRegistered",
      "type": "event"
    },
    {
      "inputs": [
        {
          "internalType": "address",
          "name": "",
          "type": "address"
        }
      ],
      "name": "balances",
      "outputs": [
        {
          "internalType": "uint256",
          "name": "",
          "type": "uint256"
        }
      ],
      "stateMutability": "view",
      "type": "function"
    },
    {
      "inputs": [],
      "name": "depositBalance",
      "outputs": [],
      "stateMutability": "payable",
      "type": "function"
    },
    {
      "inputs": [],
      "name": "feeRatePerHour",
      "outputs": [
        {
          "internalType": "uint256",
          "name": "",
          "type": "uint256"
        }
      ],
      "stateMutability": "view",
      "type": "function"
    },
    {
      "inputs": [
        {
          "internalType": "address",
          "name": "_user",
          "type": "address"
        }
      ],
      "name": "getVehicleInfo",
      "outputs": [
        {
          "components": [
            {
              "internalType": "string",
              "name": "vehicleNumber",
              "type": "string"
            },
            {
              "internalType": "string",
              "name": "userName",
              "type": "string"
            },
            {
              "internalType": "address",
              "name": "walletAddress",
              "type": "address"
            },
            {
              "internalType": "uint256",
              "name": "parkingHours",
              "type": "uint256"
            },
            {
              "internalType": "uint256",
              "name": "totalFee",
              "type": "uint256"
            }
          ],
          "internalType": "struct ParkingFeeSystem.VehicleInfo[]",
          "name": "",
          "type": "tuple[]"
        }
      ],
      "stateMutability": "view",
      "type": "function"
    },
    {
      "inputs": [],
      "name": "owner",
      "outputs": [
        {
          "internalType": "address",
          "name": "",
          "type": "address"
        }
      ],
      "stateMutability": "view",
      "type": "function"
    },
    {
      "inputs": [
        {
          "internalType": "string",
          "name": "_vehicleNumber",
          "type": "string"
        }
      ],
      "name": "payFee",
      "outputs": [],
      "stateMutability": "nonpayable",
      "type": "function"
    },
    {
      "inputs": [
        {
          "internalType": "string",
          "name": "_vehicleNumber",
          "type": "string"
        },
        {
          "internalType": "string",
          "name": "_userName",
          "type": "string"
        }
      ],
      "name": "registerVehicle",
      "outputs": [],
      "stateMutability": "nonpayable",
      "type": "function"
    },
    {
      "inputs": [
        {
          "internalType": "uint256",
          "name": "_newFeeRate",
          "type": "uint256"
        }
      ],
      "name": "setFeeRate",
      "outputs": [],
      "stateMutability": "nonpayable",
      "type": "function"
    },
    {
      "inputs": [
        {
          "internalType": "string",
          "name": "_vehicleNumber",
          "type": "string"
        },
        {
          "internalType": "uint256",
          "name": "parkingHours",
          "type": "uint256"
        }
      ],
      "name": "setParkingHours",
      "outputs": [],
      "stateMutability": "nonpayable",
      "type": "function"
    },
    {
      "inputs": [
        {
          "internalType": "address",
          "name": "",
          "type": "address"
        },
        {
          "internalType": "uint256",
          "name": "",
          "type": "uint256"
        }
      ],
      "name": "userVehicles",
      "outputs": [
        {
          "internalType": "string",
          "name": "vehicleNumber",
          "type": "string"
        },
        {
          "internalType": "string",
          "name": "userName",
          "type": "string"
        },
        {
          "internalType": "address",
          "name": "walletAddress",
          "type": "address"
        },
        {
          "internalType": "uint256",
          "name": "parkingHours",
          "type": "uint256"
        },
        {
          "internalType": "uint256",
          "name": "totalFee",
          "type": "uint256"
        }
      ],
      "stateMutability": "view",
      "type": "function"
    },
    {
      "inputs": [],
      "name": "withdrawBalance",
      "outputs": [],
      "stateMutability": "nonpayable",
      "type": "function"
    },
    {
      "inputs": [],
      "name": "withdrawCollectedFees",
      "outputs": [],
      "stateMutability": "nonpayable",
      "type": "function"
    }
  ],
  "bytecode": "0x608060405234801561001057600080fd5b506040516115f83803806115f883398101604081905261002f91610049565b600280546001600160a01b03191633179055600355610062565b60006020828403121561005b57600080fd5b5051919050565b611587806100716000396000f3fe6080604052600436106100a65760003560e01c806361bc1a491161006457806361bc1a49146101785780638da5cb5b14610180578063b23bf443146101b8578063badc0061146101d8578063cc63ab0e14610205578063dd47050f1461023657600080fd5b8062f2fc1d146100ab57806322c942f5146100cd57806327e235e3146100f657806345596e2e146101235780634f249517146101435780635fd8c71014610163575b600080fd5b3480156100b757600080fd5b506100cb6100c6366004610fc4565b61024b565b005b3480156100d957600080fd5b506100e360035481565b6040519081526020015b60405180910390f35b34801561010257600080fd5b506100e3610111366004611025565b60016020526000908152604090205481565b34801561012f57600080fd5b506100cb61013e366004611047565b610438565b34801561014f57600080fd5b506100cb61015e366004611060565b610467565b34801561016f57600080fd5b506100cb6106bc565b6100cb610786565b34801561018c57600080fd5b506002546101a0906001600160a01b031681565b6040516001600160a01b0390911681526020016100ed565b3480156101c457600080fd5b506100cb6101d33660046110c4565b610842565b3480156101e457600080fd5b506101f86101f3366004611025565b610b0f565b6040516100ed9190611147565b34801561021157600080fd5b506102256102203660046111f5565b610cd3565b6040516100ed95949392919061121f565b34801561024257600080fd5b506100cb610e42565b600081116102b05760405162461bcd60e51b815260206004820152602760248201527f5061726b696e6720686f757273206d7573742062652067726561746572207468604482015266616e207a65726f60c81b60648201526084015b60405180910390fd5b33600090815260208190526040812090805b82548110156103f05784805190602001208382815481106102e5576102e561126b565b906000526020600020906005020160000160405161030391906112bb565b6040518091039020036103de57838382815481106103235761032361126b565b906000526020600020906005020160030181905550600354846103469190611347565b8382815481106103585761035861126b565b90600052602060002090600502016004018190555060019150336001600160a01b03167fe5d3e8811e6a87556f8e8d32ee82857031f9c4db7c965da8c4228e0df61dae1886868685815481106103b0576103b061126b565b9060005260206000209060050201600401546040516103d193929190611364565b60405180910390a26103f0565b806103e881611389565b9150506102c2565b50806104325760405162461bcd60e51b815260206004820152601160248201527015995a1a58db19481b9bdd08199bdd5b99607a1b60448201526064016102a7565b50505050565b6002546001600160a01b031633146104625760405162461bcd60e51b81526004016102a7906113a2565b600355565b60008251116104b85760405162461bcd60e51b815260206004820152601e60248201527f56656869636c65206e756d6265722063616e6e6f7420626520656d707479000060448201526064016102a7565b60008151116105095760405162461bcd60e51b815260206004820152601960248201527f55736572206e616d652063616e6e6f7420626520656d7074790000000000000060448201526064016102a7565b60005b336000908152602081905260409020548110156105d457825160208085019190912033600090815291829052604090912080548390811061054f5761054f61126b565b906000526020600020906005020160000160405161056d91906112bb565b6040518091039020036105c25760405162461bcd60e51b815260206004820152601a60248201527f56656869636c6520616c7265616479207265676973746572656400000000000060448201526064016102a7565b806105cc81611389565b91505061050c565b5033600081815260208181526040808320815160a08101835287815280840187905291820194909452606081018390526080810183905283546001810185559383529120815191926005020190819061062d9082611436565b50602082015160018201906106429082611436565b506040828101516002830180546001600160a01b0319166001600160a01b03909216919091179055606083015160038301556080909201516004909101555133907f1abc38f2662d73192c9755497553b2e9c0e4379ed883770bf38db4e85111c146906106b09085906114f6565b60405180910390a25050565b33600090815260016020526040902054806107125760405162461bcd60e51b81526020600482015260166024820152754e6f2062616c616e636520746f20776974686472617760501b60448201526064016102a7565b336000818152600160205260408082208290555183156108fc0291849190818181858888f1935050505015801561074d573d6000803e3d6000fd5b5060405181815233907fddc398b321237a8d40ac914388309c2f52a08c134e4dc4ce61e32f57cb7d80f19060200160405180910390a250565b600034116107e75760405162461bcd60e51b815260206004820152602860248201527f4465706f73697420616d6f756e74206d7573742062652067726561746572207460448201526768616e207a65726f60c01b60648201526084016102a7565b3360009081526001602052604081208054349290610806908490611509565b909155505060405134815233907f35127daa9a364433b8c0088167a66055c055f07c5aca9b104d84c51bd7a367de9060200160405180910390a2565b33600090815260208190526040812090805b8254811015610ac85783805190602001208382815481106108775761087761126b565b906000526020600020906005020160000160405161089591906112bb565b604051809103902003610ab65760008382815481106108b6576108b661126b565b906000526020600020906005020160040154116109055760405162461bcd60e51b815260206004820152600d60248201526c4e6f2066656520746f2070617960981b60448201526064016102a7565b8281815481106109175761091761126b565b6000918252602080832060046005909302019190910154338352600190915260409091205410156109965760405162461bcd60e51b815260206004820152602360248201527f496e73756666696369656e742062616c616e636520746f20706179207468652060448201526266656560e81b60648201526084016102a7565b8281815481106109a8576109a861126b565b90600052602060002090600502016004015460016000336001600160a01b03166001600160a01b0316815260200190815260200160002060008282546109ee919061151c565b925050819055506000838281548110610a0957610a0961126b565b9060005260206000209060050201600301819055506000838281548110610a3257610a3261126b565b90600052602060002090600502016004018190555060019150336001600160a01b03167ff8efcbf5e7b234324bfe1597e03e47097873931b75004b6b223f7b1018c7fc3d85858481548110610a8957610a8961126b565b906000526020600020906005020160040154604051610aa992919061152f565b60405180910390a2610ac8565b80610ac081611389565b915050610854565b5080610b0a5760405162461bcd60e51b815260206004820152601160248201527015995a1a58db19481b9bdd08199bdd5b99607a1b60448201526064016102a7565b505050565b6001600160a01b038116600090815260208181526040808320805482518185028101850190935280835260609492939192909184015b82821015610cc857838290600052602060002090600502016040518060a0016040529081600082018054610b7890611281565b80601f0160208091040260200160405190810160405280929190818152602001828054610ba490611281565b8015610bf15780601f10610bc657610100808354040283529160200191610bf1565b820191906000526020600020905b815481529060010190602001808311610bd457829003601f168201915b50505050508152602001600182018054610c0a90611281565b80601f0160208091040260200160405190810160405280929190818152602001828054610c3690611281565b8015610c835780601f10610c5857610100808354040283529160200191610c83565b820191906000526020600020905b815481529060010190602001808311610c6657829003601f168201915b505050918352505060028201546001600160a01b0316602080830191909152600383015460408301526004909201546060909101529082526001929092019101610b45565b505050509050919050565b60006020528160005260406000208181548110610cef57600080fd5b906000526020600020906005020160009150915050806000018054610d1390611281565b80601f0160208091040260200160405190810160405280929190818152602001828054610d3f90611281565b8015610d8c5780601f10610d6157610100808354040283529160200191610d8c565b820191906000526020600020905b815481529060010190602001808311610d6f57829003601f168201915b505050505090806001018054610da190611281565b80601f0160208091040260200160405190810160405280929190818152602001828054610dcd90611281565b8015610e1a5780601f10610def57610100808354040283529160200191610e1a565b820191906000526020600020905b815481529060010190602001808311610dfd57829003601f168201915b505050506002830154600384015460049094015492936001600160a01b039091169290915085565b6002546001600160a01b03163314610e6c5760405162461bcd60e51b81526004016102a7906113a2565b4780610eb05760405162461bcd60e51b81526020600482015260136024820152724e6f206665657320746f20776974686472617760681b60448201526064016102a7565b6002546040516001600160a01b039091169082156108fc029083906000818181858888f19350505050158015610eea573d6000803e3d6000fd5b506040518181527fe1ba612886c314bab269521f17316b07e06593a8fbe87c52802306c8c6f778659060200160405180910390a150565b634e487b7160e01b600052604160045260246000fd5b600082601f830112610f4857600080fd5b813567ffffffffffffffff80821115610f6357610f63610f21565b604051601f8301601f19908116603f01168101908282118183101715610f8b57610f8b610f21565b81604052838152866020858801011115610fa457600080fd5b836020870160208301376000602085830101528094505050505092915050565b60008060408385031215610fd757600080fd5b823567ffffffffffffffff811115610fee57600080fd5b610ffa85828601610f37565b95602094909401359450505050565b80356001600160a01b038116811461102057600080fd5b919050565b60006020828403121561103757600080fd5b61104082611009565b9392505050565b60006020828403121561105957600080fd5b5035919050565b6000806040838503121561107357600080fd5b823567ffffffffffffffff8082111561108b57600080fd5b61109786838701610f37565b935060208501359150808211156110ad57600080fd5b506110ba85828601610f37565b9150509250929050565b6000602082840312156110d657600080fd5b813567ffffffffffffffff8111156110ed57600080fd5b6110f984828501610f37565b949350505050565b6000815180845260005b818110156111275760208185018101518683018201520161110b565b506000602082860101526020601f19601f83011685010191505092915050565b60006020808301818452808551808352604092508286019150828160051b87010184880160005b838110156111e757603f19898403018552815160a0815181865261119482870182611101565b915050888201518582038a8701526111ac8282611101565b838a01516001600160a01b0316878b01526060808501519088015260809384015193909601929092525050938601939086019060010161116e565b509098975050505050505050565b6000806040838503121561120857600080fd5b61121183611009565b946020939093013593505050565b60a08152600061123260a0830188611101565b82810360208401526112448188611101565b6001600160a01b039690961660408401525050606081019290925260809091015292915050565b634e487b7160e01b600052603260045260246000fd5b600181811c9082168061129557607f821691505b6020821081036112b557634e487b7160e01b600052602260045260246000fd5b50919050565b60008083546112c981611281565b600182811680156112e157600181146112f657611325565b60ff1984168752821515830287019450611325565b8760005260208060002060005b8581101561131c5781548a820152908401908201611303565b50505082870194505b50929695505050505050565b634e487b7160e01b600052601160045260246000fd5b808202811582820484141761135e5761135e611331565b92915050565b6060815260006113776060830186611101565b60208301949094525060400152919050565b60006001820161139b5761139b611331565b5060010190565b60208082526026908201527f4f6e6c7920746865206f776e65722063616e20706572666f726d20746869732060408201526530b1ba34b7b760d11b606082015260800190565b601f821115610b0a57600081815260208120601f850160051c8101602086101561140f5750805b601f850160051c820191505b8181101561142e5782815560010161141b565b505050505050565b815167ffffffffffffffff81111561145057611450610f21565b6114648161145e8454611281565b846113e8565b602080601f83116001811461149957600084156114815750858301515b600019600386901b1c1916600185901b17855561142e565b600085815260208120601f198616915b828110156114c8578886015182559484019460019091019084016114a9565b50858210156114e65787850151600019600388901b60f8161c191681555b5050505050600190811b01905550565b6020815260006110406020830184611101565b8082018082111561135e5761135e611331565b8181038181111561135e5761135e611331565b6040815260006115426040830185611101565b9050826020830152939250505056fea2646970667358221220d382eebecef333d33e0f71d8008d6ff13e8e9a0f1fe1d4b12cae26c25e7e4ddc64736f6c63430008110033",
  "linkReferences": {},
  "deployedLinkReferences": {}
}